:100000000C9434000C9446000C9446000C9446006A
:100010000C9446000C941F040C9446000C9446006B
:100020000C9446000C9446000C9446000C9470010D
:100030000C9446000C9446000C9446000C94460028
:100040000C9446000C9446000C9446000C94460018
:100050000C9446000C9446000C9446000C94460008
:100060000C9446000C94460011241FBECFEFD8E03C
:10007000DEBFCDBF11E0A0E0B1E001C01D92AD3800
:10008000B107E1F70E9440010C94C0040C940000F9
:100090008CB581658CBD08951092C100E4E6F0E056
:1000A0008081826080831AB88BB18FEF8BB994E026
:1000B00090936800EDE6F0E09081808384B18F62D8
:1000C00084B985B1807D85B90895E1E8F0E080814B
:1000D0008560808388E893E190938900809388000D
:1000E000EFE6F0E080818260808308958EBD0DB4DC
:1000F00007FEFDCF8EB50895E1E0F1E081E491E0E7
:100100001192119211921192E817F907C9F7109202
:1001100041011092420183E080938A0180938B0118
:1001200087E080938301809384018DE08093430175
:100130008FE0809363019EE090934401809364017B
:10014000809345018093650132E030935301109212
:10015000730121E020935401109274011092550113
:100160001092750187E090E0A0E0B0E0809301017B
:1001700090930201A0930301B093040180E890E002
:10018000DC0180931D0190931E01A0931F01B09389
:10019000200180E090E0A0E0B0EE80933D019093DC
:1001A0003E01A0933F01B093400189B18093890142
:1001B0003093850180E88093860120938C01089517
:1001C00090918A0180918B01891780F4E1E0F1E040
:1001D00021E431E080E090E0AFEFBFEF81939193B5
:1001E000A193B193E217F307C9F70895E1E0F1E0B5
:1001F00021E431E08FEF9FEFA0E0B0E08193919395
:10020000A193B193E217F307C9F70895EF92FF9214
:100210000F931F93CF93DF93299A289A289885B13B
:100220008C7F85B9C1E0D1E00F2EF1E4EF2EF1E033
:10023000FF2EF02D8E018B810E9476008A810E9414
:10024000760089919991A991B991892F0E947600A0
:10025000F80180810E9476002A9A85B1887F85B94D
:100260002A9A85B1887F85B9289A2898CE15DF0506
:1002700009F7DF91CF911F910F91FF90EF900895B3
:10028000F8940E944C000E9448000E9465007894F7
:10029000109200010E947C0080910001882341F4AB
:1002A0000E94060110928C01809100018823C1F305
:1002B000F8940E94E0000EC00E94060180918B011C
:1002C0008F5F80938B01882329F480918A018F5F4F
:1002D00080938A0180918A018B3470F37894D8CF0F
:1002E0001F920F920FB60F921124AF92BF92CF922E
:1002F000DF92EF92FF920F931F932F933F934F93B1
:100300005F936F937F938F939F93AF93BF93CF939D
:10031000DF93EF93FF93F89480918C01813009F47F
:1003200073C280914101282F21502F709091850137
:10033000923041F1933020F4913009F076C006C03C
:100340009430E1F1983009F070C054C0622F70E031
:1003500090E043E651E0FA01E60FF71F480F591FFE
:10036000DA013C9131503F70308343E451E0640F37
:10037000751F840F951FEC018881FB0180832093FA
:10038000410153C0622F70E090E043E651E0FA0172
:10039000E60FF71F480F591FDA013C91308343E401
:1003A00051E0640F751F840F951FEC018881815007
:1003B0008F70FB0180832093410137C0622F70E072
:1003C00090E043E651E0FA01E60FF71F480F591F8E
:1003D000DA013C913F5F3F70308343E451E0640FAA
:1003E000751F840F951FEC018881FB01808320938A
:1003F00041011BC0622F70E090E043E651E0FA013A
:10040000E60FF71F480F591FDA013C91308343E490
:1004100051E0640F751F840F951FEC0188818F5F79
:100420008F70FB0180832093410130E0F901ED5B87
:10043000FE4F4081809183014817C1F5F901ED59C4
:10044000FE4FE08180918401E81781F580918A0157
:100450008F5F80938A01F0E0EE0FFF1FEE0FFF1F0A
:10046000EF5FFE4F8EEF9FEFDC017C018D0104C03A
:10047000EE0CFF1C001F111F4A95D2F7808191815D
:10048000A281B3818E219F21A023B12380839183F8
:10049000A283B383F901ED58FE4F808180938301DD
:1004A000F901ED5AFE4F80818093840163E671E08B
:1004B000FB01E20FF31FE081F0E0C1E0D1E0EE0FBD
:1004C000FF1FEE0FFF1F5F01AC0EBD1E03E411E026
:1004D000200F311F80E090E0A1E0B0E06C017D01D1
:1004E000F901008004C0CC0CDD1CEE1CFF1C0A943A
:1004F000D2F7F50120813181428153812C293D2998
:100500004E295F29208331834283538330918A01AE
:1005100020914101230F2F7030E0620F731FFB0108
:10052000408150E0440F551F440F551FC40FD51F85
:10053000020F131FF801008004C0880F991FAA1F23
:10054000BB1F0A94D2F780959095A095B09528810D
:1005500039814A815B8182239323A423B523888335
:100560009983AA83BB8380914201682F61506F7089
:1005700090918601903241F1913220F4903109F04E
:1005800076C006C09034E1F1903809F070C054C0D4
:10059000462F50E090E023E731E0F901E40FF51F2A
:1005A000280F391FD9012C9121502F70208323E56A
:1005B00031E0420F531F820F931FEC018881FA0133
:1005C00080836093420153C0462F50E090E023E7C0
:1005D00031E0F901E40FF51F280F391FD9012C91E3
:1005E000208323E531E0420F531F820F931FEC015C
:1005F000888181508F70FA0180836093420137C0F7
:10060000462F50E090E023E731E0F901E40FF51FB9
:10061000280F391FD9012C912F5F2F70208323E5DC
:1006200031E0420F531F820F931FEC018881FA01C2
:100630008083609342011BC0462F50E090E023E787
:1006400031E0F901E40FF51F280F391FD9012C9172
:10065000208323E531E0420F531F820F931FEC01EB
:1006600088818F5F8F70FA01808360934201C62F6B
:10067000D0E0FE01ED5AFE4F2081809183012817C2
:10068000D1F5FE01ED58FE4FE08180918401E8171D
:1006900091F580918B018F5F80938B01F0E0EE0FDD
:1006A000FF1FEE0FFF1FEF5FFE4F81E090E0DC01C8
:1006B00004C0880F991FAA1FBB1F2A95D2F78095E7
:1006C0009095A095B09520813181428153818223FC
:1006D0009323A423B52380839183A283B383FE0154
:1006E000ED59FE4F808180938301FE01ED5BFE4F4B
:1006F00080818093840163E771E0FB01EC0FFD1FB3
:10070000E081F0E041E051E0EE0FFF1FEE0FFF1F30
:10071000E40FF51F23E531E0C20FD31F81E090E025
:100720007C01088002C0EE0CFF1C0A94E2F700E096
:1007300010E080819181A281B3818E299F29A02B15
:10074000B12B80839183A283B38300918B0180912D
:100750004201800F8F7090E0680F791FDB01EC91F0
:10076000F0E0EE0FFF1FEE0FFF1FE40FF51F280F45
:10077000391F81E090E0A0E0B0E0E901088004C00A
:10078000880F991FAA1FBB1F0A94D2F780959095D6
:10079000A095B0952081318142815381822393239A
:1007A000A423B52380839183A283B38380918A019C
:1007B000082B013118F081E0809300011092850030
:1007C00010928400E0918401F0E0EE0FFF1FEE0F25
:1007D000FF1FEF5FFE4F81E090E0DC01009083019E
:1007E00004C0880F991FAA1FBB1F0A94D2F720814B
:1007F000318142815381822B932BA42BB52B808393
:100800009183A283B3837894FF91EF91DF91CF918D
:10081000BF91AF919F918F917F916F915F914F9118
:100820003F912F911F910F91FF90EF90DF90CF900C
:10083000BF90AF900F900FBE0F901F9018951F9212
:100840000F920FB60F9211242F933F934F935F9304
:100850006F938F939F93F89410928C0149B15091AC
:1008600089015427842F8095682F6F7060938701CA
:10087000807F80938801252F30E081E090E0442341
:1008800011F480E090E082239323009719F04093C5
:1008900089016AC0613049F44E3F39F48091850185
:1008A000843009F081E08093850180918701852360
:1008B000823091F0833018F4813029F505C08430FE
:1008C00099F0883001F518C080918501843009F0D5
:1008D00081E08093850117C080918501883009F0FF
:1008E00082E0809385010FC080918501813009F0FD
:1008F00084E08093850107C080918501823009F0F2
:1009000088E080938501809188015823503291F0CE
:10091000513218F4503129F505C0503499F050384F
:1009200001F518C080918601803409F080E1809340
:10093000860117C080918601803809F080E280939B
:1009400086010FC080918601803109F080E4809398
:10095000860107C080918601803209F080E880938B
:1009600086014093890178949F918F916F915F9157
:100970004F913F912F910F900FBE0F901F901895A0
:04098000F894FFCF19
:00000001FF
